{
  "_format": "hh-sol-artifact-1",
  "contractName": "StudentRegistry",
  "sourceName": "contracts/StudentRegistry.sol",
  "abi": [
    {
      "anonymous": false,
      "inputs": [
        {
          "indexed": true,
          "internalType": "uint256",
          "name": "admissionNumber",
          "type": "uint256"
        },
        {
          "indexed": false,
          "internalType": "string",
          "name": "name",
          "type": "string"
        },
        {
          "indexed": false,
          "internalType": "string",
          "name": "studentClass",
          "type": "string"
        }
      ],
      "name": "StudentAdded",
      "type": "event"
    },
    {
      "inputs": [
        {
          "internalType": "uint256",
          "name": "admissionNumber",
          "type": "uint256"
        },
        {
          "internalType": "string",
          "name": "name",
          "type": "string"
        },
        {
          "internalType": "string",
          "name": "studentClass",
          "type": "string"
        }
      ],
      "name": "addStudentDetails",
      "outputs": [],
      "stateMutability": "nonpayable",
      "type": "function"
    },
    {
      "inputs": [
        {
          "internalType": "uint256",
          "name": "admissionNumber",
          "type": "uint256"
        }
      ],
      "name": "getStudentDetails",
      "outputs": [
        {
          "internalType": "string",
          "name": "name",
          "type": "string"
        },
        {
          "internalType": "string",
          "name": "studentClass",
          "type": "string"
        }
      ],
      "stateMutability": "view",
      "type": "function"
    },
    {
      "inputs": [
        {
          "internalType": "uint256",
          "name": "",
          "type": "uint256"
        }
      ],
      "name": "students",
      "outputs": [
        {
          "internalType": "string",
          "name": "name",
          "type": "string"
        },
        {
          "internalType": "string",
          "name": "studentClass",
          "type": "string"
        }
      ],
      "stateMutability": "view",
      "type": "function"
    }
  ],
  "bytecode": "0x608060405234801561001057600080fd5b506107e6806100206000396000f3fe608060405234801561001057600080fd5b50600436106100415760003560e01c806306ead22e1461004657806331d4ac181461007757806386a9b36414610093575b600080fd5b610060600480360381019061005b9190610517565b6100c4565b60405161006e9291906105f8565b60405180910390f35b610091600480360381019061008c9190610540565b6101f8565b005b6100ad60048036038101906100a89190610517565b61029b565b6040516100bb9291906105f8565b60405180910390f35b60006020528060005260406000206000915090508060000180546100e7906106f8565b80601f0160208091040260200160405190810160405280929190818152602001828054610113906106f8565b80156101605780601f1061013557610100808354040283529160200191610160565b820191906000526020600020905b81548152906001019060200180831161014357829003601f168201915b505050505090806001018054610175906106f8565b80601f01602080910402602001604051908101604052809291908181526020018280546101a1906106f8565b80156101ee5780601f106101c3576101008083540402835291602001916101ee565b820191906000526020600020905b8154815290600101906020018083116101d157829003601f168201915b5050505050905082565b604051806040016040528083815260200182815250600080858152602001908152602001600020600082015181600001908051906020019061023b9291906103f7565b5060208201518160010190805190602001906102589291906103f7565b50905050827f8f2389bb456b93c3e9fe508739c041611b37c490e217f5aa157162a700ec4df7838360405161028e9291906105f8565b60405180910390a2505050565b60608060008060008581526020019081526020016000206040518060400160405290816000820180546102cd906106f8565b80601f01602080910402602001604051908101604052809291908181526020018280546102f9906106f8565b80156103465780601f1061031b57610100808354040283529160200191610346565b820191906000526020600020905b81548152906001019060200180831161032957829003601f168201915b5050505050815260200160018201805461035f906106f8565b80601f016020809104026020016040519081016040528092919081815260200182805461038b906106f8565b80156103d85780601f106103ad576101008083540402835291602001916103d8565b820191906000526020600020905b8154815290600101906020018083116103bb57829003601f168201915b5050505050815250509050806000015181602001519250925050915091565b828054610403906106f8565b90600052602060002090601f016020900481019282610425576000855561046c565b82601f1061043e57805160ff191683800117855561046c565b8280016001018555821561046c579182015b8281111561046b578251825591602001919060010190610450565b5b509050610479919061047d565b5090565b5b8082111561049657600081600090555060010161047e565b5090565b60006104ad6104a884610660565b61062f565b9050828152602081018484840111156104c557600080fd5b6104d08482856106b6565b509392505050565b600082601f8301126104e957600080fd5b81356104f984826020860161049a565b91505092915050565b60008135905061051181610799565b92915050565b60006020828403121561052957600080fd5b600061053784828501610502565b91505092915050565b60008060006060848603121561055557600080fd5b600061056386828701610502565b935050602084013567ffffffffffffffff81111561058057600080fd5b61058c868287016104d8565b925050604084013567ffffffffffffffff8111156105a957600080fd5b6105b5868287016104d8565b9150509250925092565b60006105ca82610690565b6105d4818561069b565b93506105e48185602086016106c5565b6105ed81610788565b840191505092915050565b6000604082019050818103600083015261061281856105bf565b9050818103602083015261062681846105bf565b90509392505050565b6000604051905081810181811067ffffffffffffffff8211171561065657610655610759565b5b8060405250919050565b600067ffffffffffffffff82111561067b5761067a610759565b5b601f19601f8301169050602081019050919050565b600081519050919050565b600082825260208201905092915050565b6000819050919050565b82818337600083830152505050565b60005b838110156106e35780820151818401526020810190506106c8565b838111156106f2576000848401525b50505050565b6000600282049050600182168061071057607f821691505b602082108114156107245761072361072a565b5b50919050565b7f4e487b7100000000000000000000000000000000000000000000000000000000600052602260045260246000fd5b7f4e487b7100000000000000000000000000000000000000000000000000000000600052604160045260246000fd5b6000601f19601f8301169050919050565b6107a2816106ac565b81146107ad57600080fd5b5056fea264697066735822122092f957f391e971e6f9a91d52a6f4e8a84cad2826be406293fc50d5d1b3dd77d964736f6c63430008000033",
  "linkReferences": {},
  "deployedLinkReferences": {}
}